:1000000012C022C021C020C01FC01EC01DC01CC005
:100010001BC01AC019C018C017C016C015C014C024
:1000200013C012C011C011241FBECFEDCDBF10E010
:10003000A0E6B0E0E4E7F4E002C005900D92A23B38
:10004000B107D9F743D114C2DBCF8FEF87BB81E172
:100050008ABB80E681BB08958BE990E061E070E0A7
:1000600046E050E0E8D183ED90E30197F1F700C05E
:10007000000008958BE990E061E070E046E050E018
:10008000CBD180919B0080538A3030F088E58093FB
:100090009B002FEF3FEF02C020E030E0C901089540
:1000A00082EA90E061E070E046E050E0C4D183ED88
:1000B00090E30197F1F700C00000DCDF0895969A05
:1000C00080E18A95F1F700C096988AE08A95F1F769
:1000D0000895959888BBF3DF089581E080939A0096
:1000E000F8DF8DEE92E00197F1F700C0000008956F
:1000F00083ED90E30197F1F700C0000080E3E9DFB2
:1001000087E893E10197F1F700C0000080E3E1DFA9
:1001100092E49A95F1F700C080E3DBDF87EA91E68D
:100120000197F1F700C000008CE3D3DF89E698E186
:100130000197F1F700C000008FE0CBDF89E698E17E
:100140000197F1F700C0000086E0C3DF83ED90E384
:100150000197F1F700C0000008958054BADF8DEEDA
:1001600092E00197F1F700C0000008951F93182F47
:1001700080919A00893011F480ECABDF959A18BB1E
:100180009EDF80919A008F5F80939A001F9108955F
:10019000EF92FF92CF93DF93E82EE7017E01F92ED5
:1001A000E70105C0E3DF96E09A95F1F700C0899179
:1001B0008823C1F7DF91CF91FF90EF900895CF9200
:1001C000DF92EF92FF920F931F93DF93CF930F92E3
:1001D000CDB7DEB780E38093A2008093A300809325
:1001E000A4008093A5008093A6008093A70075DFEC
:1001F00080919B00883519F480E690E002C085E686
:1002000090E0C6DF8AE690E0C3DF0FEF10E024E65F
:1002100092E0E92E80E3F82E8BB38E258BBB80E035
:1002200029839BDF89EA90E0B3DF812F96DFC12E1F
:10023000DD24F601EE55FF4F808198DF812F8DDFA1
:1002400083ED90E30197F1F700C0000029810C31A4
:1002500011F421500AC08FE996E8A1E08150904046
:10026000A040E1F700C0000024E600B30C7102FDDD
:100270000AC0F601EE55FF4F80818F5F80838A337D
:1002800060F0F0820AC003FD04C01F5F163020F446
:1002900004C004FD02C007C010E0222309F0BCCF57
:1002A00020E030E002C021E030E0C9010F90CF91A2
:1002B000DF911F910F91FF90EF90DF90CF90089505
:1002C000882311F0D89A0895D898089583EC99E07E
:1002D0000197F1F700C00000B8DE80E0F1DF8FEB9E
:1002E00097E2A9E081509040A040E1F700C00000F3
:1002F000FFDEA7EAB1E61197F1F700C00000EDDEDE
:100300008FE690E045DF8FE79AE1A6E081509040CC
:10031000A040E1F700C0000080990EC09DDEDDDE48
:1003200088E790E035DF8FE79AE1A6E081509040C2
:10033000A040E1F700C000009DDECFDEA3EDB0E3FA
:100340001197F1F700C0000080E0BADF38DFD998DC
:100350008823A1F380919B009091A2008835E1F45D
:100360009033A1F48091A300803381F48091A400A4
:10037000803361F48091A500803341F48091A60020
:10038000803321F48091A7008033B9F189DE80E0C9
:10039000E4DE87E890E035C0981779F59091A300E6
:1003A00080919C00981749F59091A40080919D0040
:1003B000981719F59091A50080919E009817E9F47F
:1003C0009091A60080919F009817B9F49091A70092
:1003D0008091A000981789F481E072DFD99A7DDEC0
:1003E0008EE890E0D5DE8FE79FE4A2E18150904057
:1003F000A040E1F700C0000005C080E0AEDE8FE75E
:1004000090E0C6DE8FEF94E3ACE081509040A040D6
:10041000E1F700C0000092CFA82F862FE82FE199C6
:10042000FECF1FBA05C0EEBBE09AE3950DB20D9268
:100430004150C8F70895A82FA40F415030F0862FDF
:10044000840F2E9104D04150E0F70895262FE199B2
:10045000FECF1FBA8EBBE09A81500DB2021639F062
:100460001CBA2DBB0FB6F894E29AE19A0FBE08951C
:04047000F894FFCF2E
:100474004E455720004F70656E005057443A005067
:100484005744204C4F434B00455241534544004987
:100494004E56414C49440053415645442E004C4F5E
:1004A400434B204F50454E45440001585858585826
:1004B4005800303030303030002A2A2A2A2A2A20A4
:0204C400200016
:00000001FF
