:1000000012C02CC02BC02AC029C028C027C026C0BF
:1000100025C024C023C02BC721C020C01FC01EC0C4
:100020001DC01CC01BC011241FBECFE5D4E0DEBF25
:10003000CDBF10E0A0E6B0E0E8E9FFE002C0059027
:100040000D92A83CB107D9F712E0A8ECB0E001C0CE
:100050001D92AE36B107E1F7E5D39CC7D1CF10BCF6
:1000600083E389B986E880BD88E98AB908958CB9A7
:100070005D9BFECF08955F9BFECF8CB10895E4ECAD
:10008000F9E03197F1F7FC0128EA31E607C08CB9B5
:100090005D9BFECFC9010197F1F7319680818823DE
:1000A000B1F70895AC01E4ECF9E03197F1F720E005
:1000B00030E070E0A8EAB1E60CC0FA01E20FF31FED
:1000C00080818CB95D9BFECFFD013197F1F72F5FE9
:1000D0003F4F2617370788F3089511B887E480B992
:1000E00084E086BF089584E886BF06B607FEFDCF8C
:1000F00083B1089583B984EC86BF06B607FEFDCFB1
:10010000089584EA86BF06B607FEFDCF089584E908
:1001100086BF8AEF90E00197F1F70895982F84EA5F
:1001200086BF06B607FEFDCF93B984EC86BF06B640
:1001300007FEFDCF63B984EC86BF06B607FEFDCF90
:1001400043B984EC86BF06B607FEFDCF84E986BFBF
:100150008AEF90E00197F1F784EC99E00197F1F7CD
:100160000895982F84EA86BF06B607FEFDCF93B99F
:1001700084EC86BF06B607FEFDCF63B984EC86BF6C
:1001800006B607FEFDCF84EA86BF06B607FEFDCFA2
:10019000916093B984EC86BF06B607FEFDCF84E874
:1001A00086BF06B607FEFDCF83B194E996BFEAEF9E
:1001B000F0E03197F1F7089580ED62E0D2DF982FFB
:1001C00092959F70905D9093FC008F70805D8093FE
:1001D000FD0080ED61E0C5DF982F92959F70905DE6
:1001E000909302018F70805D8093030180ED60E049
:1001F000B8DF982F92959F70905D9093E6008F7076
:10020000805D8093E70080ED64E0ABDF982F9295EE
:100210009F70905D9093FE008F70805D8093FF00D3
:1002200080ED65E09EDF982F92959F70905D909392
:10023000CF008F70805D8093D00080ED66E091DF0D
:10024000982F92959F70905D909300018F70805DC4
:10025000809301010895AF92BF92CF92DF92EF9207
:10026000FF920F931F93FC017B016A0159014181A9
:10027000405380818295807F480F80ED62E04EDFA1
:10028000F7014181405380818295807F480F80ED46
:1002900061E044DF80ED60E040E040DFF601418155
:1002A000405380818295807F480F80ED64E036DF87
:1002B000F5014181405380818295807F480F80ED18
:1002C00065E02CDFF8014181405380818295807F79
:1002D000480F80ED66E022DF1F910F91FF90EF90B5
:1002E000DF90CF90BF90AF900895382F613059F4D0
:1002F00028B381E090E002C0880F991F3A95E2F799
:10030000282B28BB0895662359F428B381E090E098
:1003100002C0880F991F3A95E2F78095822388BB27
:10032000089584E061E0E1DF82E060E0DEDF8FEFEE
:100330009FEF29E130E0F9013197F1F70197D9F703
:1003400086E060E0D2DF85E060E0CFDF089585E001
:1003500061E0CBDF80E593EC29E130E0F9013197F2
:10036000F1F70197D9F784E060E0BFDF82E061E058
:10037000BCDF83E060E0B9DF86E061E0B6DF0895CE
:10038000813339F483E061E0B0DF80E690E077DE2E
:100390000895803331F483E060E0A7DF81E790E0E7
:1003A0006EDE0895DF93CF93CDB7DEB72A970FB6F1
:1003B000F894DEBF0FBECDBFFE0131969E01255FD2
:1003C0003F4F5F9BFECF8CB18193E217F307C9F7D4
:1003D0005F9BFECF8CB183E28CB95D9BFECFCE01DB
:1003E00001966AE05FDE82E890E049DE2A960FB669
:1003F000F894DEBF0FBECDBFCF91DF910895DF939C
:10040000CF93CDB7DEB72A970FB6F894DEBF0FBEF5
:10041000CDBFFE0131969E01255F3F4F5F9BFECF12
:100420008CB18193E217F307C9F75F9BFECF8CB1C4
:1004300083E28CB95D9BFECFCE0101966AE032DE8D
:1004400088E890E01CDE2A960FB6F894DEBF0FBE57
:10045000CDBFCF91DF9108950F931F93DF93CF937B
:10046000CDB7DEB72C970FB6F894DEBF0FBECDBF69
:10047000FE0131969E012D5F3F4F5F9BFECF8CB1F9
:100480008193E217F307C9F75F9BFECF8CB1FE01A2
:1004900033969E012B5F3F4F5F9BFECF8CB18193C4
:1004A000E217F307C9F75F9BFECF8CB1FE013596CB
:1004B0009E01295F3F4F5F9BFECF8CB18193E21776
:1004C000F307C9F75F9BFECF8CB1FE0137969E0103
:1004D000275F3F4F5F9BFECF8CB18193E217F307FD
:1004E000C9F75F9BFECF8CB15F9BFECF8CB15F9B4A
:1004F000FECF8CB1FE0139969E01255F3F4F5F9B79
:10050000FECF8CB18193E217F307C9F75F9BFECF53
:100510008CB1CE010196BE016D5F7F4FAE014B5F86
:100520005F4F9E01295F3F4F8E01075F1F4F93DE94
:100530002C960FB6F894DEBF0FBECDBFCF91DF91E2
:100540001F910F91089538DE8EE890E098DD8CEFD2
:1005500090E062E0A7DD82E091E062E0A3DD8EEF53
:1005600090E062E09FDD8FEC90E062E09BDD80E058
:1005700091E062E097DD8AE28CB95D9BFECF089541
:10058000CF92DF92EF92FF920F931F9315DED090E0
:10059000FC00E090FD00F09002010091030110E0EA
:1005A00053E2C52E78C0212F30E0812F880F880FAD
:1005B000A82FB0E0FD01EC5AFE4F80818D1509F0A7
:1005C00069C081818E1509F065C082818F1509F09F
:1005D00061C08381801709F05DC0A851BF4F8C9125
:1005E000843509F057C0CCB85D9BFECFC90143E00C
:1005F000880F991F4A95E1F7220F331F820FA82F0A
:10060000B0E0FD01EA55FE4F80818CB95D9BFECFC5
:10061000FD01EA55FE4F81818CB95D9BFECFFD0146
:10062000EA55FE4F82818CB95D9BFECFFD01EA55F4
:10063000FE4F83818CB95D9BFECFFD01EA55FE4FD5
:1006400084818CB95D9BFECFFD01EA55FE4F85810B
:100650008CB95D9BFECFFD01EA55FE4F86818CB9BA
:100660005D9BFECFFD01EA55FE4F87818CB95D9BF6
:10067000FECFFD01EA55FE4F80858CB95D9BFECF14
:10068000AA55BE4F19968C918CB95D9BFECF82E81E
:1006900090E0F5DC1F5F8091E500181708F483CF28
:1006A0001F910F91FF90EF90DF90CF900895CF9220
:1006B000DF92EF92FF920F931F937EDDD090FC00AC
:1006C000E090FD00F09002010091030110E0E3E2F0
:1006D000CE2E78C0212F30E0812F880F880FA82FD1
:1006E000B0E0FD01EC5FFE4F80818D1509F069C01F
:1006F00081818E1509F065C082818F1509F061C076
:100700008381801709F05DC0A851BF4F8C9184355B
:1007100009F057C0CCB85D9BFECFC90173E0880FCC
:10072000991F7A95E1F7220F331F820FA82FB0E0AF
:10073000FD01EA55FE4F80818CB95D9BFECFFD0126
:10074000EA55FE4F81818CB95D9BFECFFD01EA55D4
:10075000FE4F82818CB95D9BFECFFD01EA55FE4FB5
:1007600083818CB95D9BFECFFD01EA55FE4F8481EC
:100770008CB95D9BFECFFD01EA55FE4F85818CB99A
:100780005D9BFECFFD01EA55FE4F86818CB95D9BD6
:10079000FECFFD01EA55FE4F87818CB95D9BFECFF0
:1007A000FD01EA55FE4F80858CB95D9BFECFAA55B1
:1007B000BE4F19968C918CB95D9BFECF88E890E076
:1007C0005EDC1F5F8091E500181708F483CF1F914E
:1007D0000F91FF90EF90DF90CF9008958091C80027
:1007E0008F3F51F486E060E080DD82E060E07DDDF7
:1007F00083E061E07ADD0895882349F486E061E0D2
:1008000074DD82E061E071DD83E060E06EDD08951B
:100810008BEF81BB84E082BB80E48BBF83E085BF2C
:100820007894089510BC83E389B986E880BD88E98F
:100830008AB978948FEF87BB8ADDBEDCA1DE37DF13
:1008400080E197E229E130E0F9013197F1F7019772
:10085000D9F780E197E2F8CF86EA91E060E070E0B6
:1008600048EC50E077D381ED90E068EC70E044E133
:1008700050E070D388EE90E06CED70E044E150E021
:1008800069D384E591E060EF70E040E550E062D329
:1008900084E091E060E471E040E550E05BD380915A
:1008A000900190E06091E50064D3089586EA91E0BC
:1008B00060E070E048EC50E035D381ED90E068EC0A
:1008C00070E044E150E02ED388EE90E06CED70E0F3
:1008D00044E150E027D384E591E060EF70E040E52B
:1008E00050E020D384E091E060E471E040E550E026
:1008F00019D38091900190E025D38093E50008956D
:10090000D5DF8EE990E0BBDB8091E5008CB95D9B83
:10091000FECF86E28CB95D9BFECF86EA91E068EC63
:10092000C1DB86E28CB95D9BFECF81ED90E064E196
:10093000B9DB8AE28CB95D9BFECF08952F923F927E
:100940004F925F926F927F928F929F92AF92BF92DF
:10095000CF92DF92EF92FF920F931F93DF93CF938B
:10096000CDB7DEB760970FB6F894DEBF0FBECDBF30
:100970009DDFFE0131969E01255F3F4F5F9BFECFBD
:100980008CB18193E217F307C9F75F9BFECF8CB15F
:1009900083E28CB95D9BFECFCE0101966AE082DBDB
:1009A0008FEA90E06CDB6090E5008981888B9A810A
:1009B0009F87EB81EE87FC81FD878D818C879E81EF
:1009C0009B872F80388449845A84772410C18C9166
:1009D00098899817E1F780819F85981709F01AC1C7
:1009E000FA01EE0FFF1FEE0FFF1FE40FF51FEE0FD2
:1009F000FF1FE855FE4F8081EE85E81709F0F7C02C
:100A000013968C911397FD85F81709F0F0C0149692
:100A10008C9114979C85981709F0E9C015968C91D4
:100A20001597EB85E81709F0E2C016968C9116979A
:100A3000281609F0DCC017968C911797381609F024
:100A4000D6C018968C911897481609F0D0C0199600
:100A50008C91581609F0CBC0072D10E04801880C86
:100A6000991C980183E0220F331F8A95E1F7280D26
:100A7000391DB8016F5F7F4F5B01AA0CBB1CCB0116
:100A8000A3E0880F991FAA95E1F78A0D9B1D2A55AF
:100A90003E4F8A559E4FFC014081F9014083FC0185
:100AA0004181F90141836801CC0CDD1CCC0CDD1CBB
:100AB000D601A00FB11FAA0FBB1FA855BE4F7B01C7
:100AC000EE0CFF1CEE0CFF1CF701E60FF71FEE0FFC
:100AD000FF1FE855FE4F40814C93FC014381F90113
:100AE0004383FC014481F9014483FC014581F90100
:100AF0004583FC014681F9014683FC014781F901E8
:100B00004783FC014085F9014087FC018185F9019B
:100B10008187D801AF52BF4FFB01EF52FF4F808159
:100B20008C9308511F4F68517F4FFB018081F80162
:100B30008083D601AC5ABE4FF701EC5AFE4F80813C
:100B40008C9386010F5F1F4FB7016F5F7F4FD801F6
:100B5000AC5ABE4FFB01EC5AFE4F80818C93089437
:100B6000811C911C880C991C0894A11CB11CAA0C16
:100B7000BB1CD401AC5ABE4FF501EC5AFE4F80812C
:100B80008C93A6014D5F5F4F97012D5F3F4FDA01B8
:100B9000AC5ABE4FF901EC5AFE4F80818C9384E031
:100BA00091E0C80ED91EE80EF91EF7018081F6010A
:100BB00080830C5F1E4F6C5F7E4FFB018081F801CC
:100BC000808384E091E0880E991EA80EB91EF5017D
:100BD0008081F40180834C5F5E4F2C5F3E4FF901B2
:100BE0008081FA0180837394761408F435CF472D01
:100BF00050E0CA01880F991F9A01F3E0220F331FBA
:100C0000FA95E1F7820F931FDC01AA55BE4FFC0154
:100C1000E955FE4F761408F4DACE85EB90E02FDA32
:100C20008091E50081508093E50016DE60960FB656
:100C3000F894DEBF0FBECDBFCF91DF911F910F9112
:100C4000FF90EF90DF90CF90BF90AF909F908F90EC
:100C50007F906F905F904F903F902F900895DF931B
:100C6000CF93CDB7DEB72A970FB6F894DEBF0FBE8D
:100C7000CDBF1CDE5F9BFECF8CB1FE0131969E0185
:100C8000255F3F4F5F9BFECF8CB18193E217F30747
:100C9000C9F7FFCFDF93CF9300D00F92CDB7DEB768
:100CA0005F9BFECF8CB1FE0131969E012C5F3F4FC2
:100CB0005F9BFECF8CB18193E217F307C9F789815F
:100CC000813499F48A818C3409F07FC08B818D3412
:100CD00009F07BC05F9BFECF8CB15F9BFECF8CB1D8
:100CE0005F9BFECF9CB14CDB70C0843469F48A8179
:100CF000853409F06AC08B818C3409F066C05F9B33
:100D0000FECF8CB11BDE61C08435A1F48A818434AE
:100D100009F05BC08B81813529F45F9BFECF8CB1DC
:100D200012DC53C0833509F050C05F9BFECF8CB1FD
:100D300093DB4BC08E3469F48A81853409F045C059
:100D40008B81873509F041C05F9BFECF8CB187DF77
:100D50003CC0833559F48A81843459F58B818E34B3
:100D600041F55F9BFECF8CB1DCDA2FC0833491F468
:100D70008A818F3451F58B818E3429F45F9BFECFAD
:100D80008CB110DB22C0863401F55F9BFECF8CB1A5
:100D900036DB1BC0853559F48A818035B1F48B81EF
:100DA000843499F45F9BFECF8CB1AADD0EC08335ED
:100DB00061F48A818F3449F48B818B3431F45F9BE9
:100DC000FECF8CB11092C80009DD0F900F900F90EC
:100DD000CF91DF9108958091900190E0B3D08093FE
:100DE000E5000895DF93CF93CDB7DEB72A970FB60E
:100DF000F894DEBF0FBECDBFEEDFFE0131969E013F
:100E0000255F3F4F5F9BFECF8CB18193E217F307C5
:100E1000C9F78981833401F58A818F34E9F48B81A4
:100E20008E34D1F48C818435B9F48D818235A1F46E
:100E30008E818F3489F48F818C3471F488858C3461
:100E400059F48985853441F490E08A85823509F02A
:100E500091E081E0982701C090E0892F2A960FB693
:100E6000F894DEBF0FBECDBFCF91DF9108951F92E2
:100E70000F920FB60F9211242F933F934F935F93CE
:100E80006F937F938F939F93AF93BF93EF93FF9352
:100E9000F8948CB18093A501833221F4A3DF8130D3
:100EA00009F4F8DE7894FF91EF91BF91AF919F9193
:100EB0008F917F916F915F914F913F912F910F9003
:100EC0000FBE0F901F9018958091910190E03AD03D
:100ED0008093A40108950F931F93F6DF7CDF11B870
:100EE00087E480B984E086BF88EA91E60197F1F74C
:100EF00080919101813099F090E061E03AD0809149
:100F0000900190E060E035D088EB90E06BEB70E012
:100F10004EEB50E021EC30E004EC10E09CD91F9146
:100F20000F910895DC01CB01FC01E199FECF06C0D1
:100F3000FFBBEEBBE09A31960DB20D92415050408E
:100F4000B8F70895E199FECF9FBB8EBBE09A992731
:100F50008DB30895DC01A40FB51F4150504040F0FF
:100F6000CB01840F951F2E9105D041505040D8F7EA
:100F70000895262FE199FECF9FBB8EBBE09A019783
:100F80000DB2021631F02DBB0FB6F894E29AE19A39
:080F90000FBE0895F894FFCF95
:100F980023414C4C204D4F44554C4526414C4D2A3D
:100FA8000023414C4C204D4F44554C45264E524D44
:100FB8002A00264F4E4E2A00264F46462A00235422
:100FC8004348204D4F44554C452644544D00235426
:100FD8004348204D4F44554C452655444426002649
:100FE8005253542A004F4B00303700353500313901
:080FF800003033003931000024
:0400000300000102F6
:00000001FF
